{
    "abi": [
        {
            "type": "constructor",
            "inputs": [
                {
                    "name": "priceFeed",
                    "type": "address",
                    "internalType": "address"
                }
            ],
            "stateMutability": "nonpayable"
        },
        {
            "type": "fallback",
            "stateMutability": "payable"
        },
        {
            "type": "receive",
            "stateMutability": "payable"
        },
        {
            "type": "function",
            "name": "fund",
            "inputs": [],
            "outputs": [],
            "stateMutability": "payable"
        },
        {
            "type": "function",
            "name": "getAddressToAmountFunded",
            "inputs": [
                {
                    "name": "fundingAddress",
                    "type": "address",
                    "internalType": "address"
                }
            ],
            "outputs": [
                {
                    "name": "",
                    "type": "uint256",
                    "internalType": "uint256"
                }
            ],
            "stateMutability": "view"
        },
        {
            "type": "function",
            "name": "getFundRaised",
            "inputs": [],
            "outputs": [
                {
                    "name": "",
                    "type": "uint256",
                    "internalType": "uint256"
                }
            ],
            "stateMutability": "view"
        },
        {
            "type": "function",
            "name": "getFunder",
            "inputs": [
                {
                    "name": "index",
                    "type": "uint256",
                    "internalType": "uint256"
                }
            ],
            "outputs": [
                {
                    "name": "",
                    "type": "address",
                    "internalType": "address"
                }
            ],
            "stateMutability": "view"
        },
        {
            "type": "function",
            "name": "getOwner",
            "inputs": [],
            "outputs": [
                {
                    "name": "",
                    "type": "address",
                    "internalType": "address"
                }
            ],
            "stateMutability": "view"
        },
        {
            "type": "function",
            "name": "getPriceFeed",
            "inputs": [],
            "outputs": [
                {
                    "name": "",
                    "type": "address",
                    "internalType": "contract AggregatorV3Interface"
                }
            ],
            "stateMutability": "view"
        },
        {
            "type": "function",
            "name": "getVersion",
            "inputs": [],
            "outputs": [
                {
                    "name": "",
                    "type": "uint256",
                    "internalType": "uint256"
                }
            ],
            "stateMutability": "view"
        },
        {
            "type": "function",
            "name": "withdraw",
            "inputs": [],
            "outputs": [],
            "stateMutability": "nonpayable"
        },
        {
            "type": "error",
            "name": "Fund__MinimumAmtShouldBeGreaterThenZero",
            "inputs": []
        },
        {
            "type": "error",
            "name": "Fund__NotOwner",
            "inputs": []
        },
        {
            "type": "error",
            "name": "Fund__TransactionFailed",
            "inputs": []
        }
    ],
    "bytecode": {
        "object": "0x60a060405234801561000f575f5ffd5b50604051610e99380380610e9983398181016040528101906100319190610108565b3373ffffffffffffffffffffffffffffffffffffffff1660808173ffffffffffffffffffffffffffffffffffffffff1681525050805f5f6101000a81548173ffffffffffffffffffffffffffffffffffffffff021916908373ffffffffffffffffffffffffffffffffffffffff16021790555050610133565b5f5ffd5b5f73ffffffffffffffffffffffffffffffffffffffff82169050919050565b5f6100d7826100ae565b9050919050565b6100e7816100cd565b81146100f1575f5ffd5b50565b5f81519050610102816100de565b92915050565b5f6020828403121561011d5761011c6100aa565b5b5f61012a848285016100f4565b91505092915050565b608051610d476101525f395f81816103f3015261062d0152610d475ff3fe60806040526004361061007e575f3560e01c80639e87a5cd1161004d5780639e87a5cd1461013d578063b60d428814610167578063d7b4750c14610171578063e3707796146101ad5761008d565b80630343fb25146100975780630d8e6e2c146100d35780633ccfd60b146100fd578063893d20e8146101135761008d565b3661008d5761008b6101d7565b005b6100956101d7565b005b3480156100a2575f5ffd5b506100bd60048036038101906100b8919061088d565b610318565b6040516100ca91906108d0565b60405180910390f35b3480156100de575f5ffd5b506100e761035e565b6040516100f491906108d0565b60405180910390f35b348015610108575f5ffd5b506101116103f1565b005b34801561011e575f5ffd5b5061012761062a565b60405161013491906108f8565b60405180910390f35b348015610148575f5ffd5b50610151610651565b60405161015e919061096c565b60405180910390f35b61016f6101d7565b005b34801561017c575f5ffd5b50610197600480360381019061019291906109af565b610678565b6040516101a491906108f8565b60405180910390f35b3480156101b8575f5ffd5b506101c16106bc565b6040516101ce91906108d0565b60405180910390f35b670de0b6b3a76400006102135f5f9054906101000a900473ffffffffffffffffffffffffffffffffffffffff16346106c590919063ffffffff16565b101561024b576040517fbe37dffa00000000000000000000000000000000000000000000000000000000815260040160405180910390fd5b600333908060018154018082558091505060019003905f5260205f20015f9091909190916101000a81548173ffffffffffffffffffffffffffffffffffffffff021916908373ffffffffffffffffffffffffffffffffffffffff1602179055503460025f3373ffffffffffffffffffffffffffffffffffffffff1673ffffffffffffffffffffffffffffffffffffffff1681526020019081526020015f205f8282546102f79190610a07565b925050819055503460015f82825461030f9190610a07565b92505081905550565b5f60025f8373ffffffffffffffffffffffffffffffffffffffff1673ffffffffffffffffffffffffffffffffffffffff1681526020019081526020015f20549050919050565b5f5f5f9054906101000a900473ffffffffffffffffffffffffffffffffffffffff1673ffffffffffffffffffffffffffffffffffffffff166354fd4d506040518163ffffffff1660e01b8152600401602060405180830381865afa1580156103c8573d5f5f3e3d5ffd5b505050506040513d601f19601f820116820180604052508101906103ec9190610a4e565b905090565b7f000000000000000000000000000000000000000000000000000000000000000073ffffffffffffffffffffffffffffffffffffffff163373ffffffffffffffffffffffffffffffffffffffff1614610476576040517fa9b8b84d00000000000000000000000000000000000000000000000000000000815260040160405180910390fd5b5f60038054905090505f5f90505b8181101561051b575f600382815481106104a1576104a0610a79565b5b905f5260205f20015f9054906101000a900473ffffffffffffffffffffffffffffffffffffffff1690505f60025f8373ffffffffffffffffffffffffffffffffffffffff1673ffffffffffffffffffffffffffffffffffffffff1681526020019081526020015f2081905550508080600101915050610484565b505f67ffffffffffffffff81111561053657610535610aa6565b5b6040519080825280602002602001820160405280156105645781602001602082028036833780820191505090505b506003908051906020019061057a92919061078d565b505f4790505f6001819055505f3373ffffffffffffffffffffffffffffffffffffffff16826040516105ab90610b00565b5f6040518083038185875af1925050503d805f81146105e5576040519150601f19603f3d011682016040523d82523d5f602084013e6105ea565b606091505b5050905080610625576040517f62660e8700000000000000000000000000000000000000000000000000000000815260040160405180910390fd5b505050565b5f7f0000000000000000000000000000000000000000000000000000000000000000905090565b5f5f5f9054906101000a900473ffffffffffffffffffffffffffffffffffffffff16905090565b5f6003828154811061068d5761068c610a79565b5b905f5260205f20015f9054906101000a900473ffffffffffffffffffffffffffffffffffffffff169050919050565b5f600154905090565b5f5f6106d0836106ff565b90505f670de0b6b3a764000085836106e89190610b14565b6106f29190610b82565b9050809250505092915050565b5f5f8273ffffffffffffffffffffffffffffffffffffffff1663feaf968c6040518163ffffffff1660e01b815260040160a060405180830381865afa15801561074a573d5f5f3e3d5ffd5b505050506040513d601f19601f8201168201806040525081019061076e9190610c24565b5050509150506402540be400816107859190610c9b565b915050919050565b828054828255905f5260205f20908101928215610803579160200282015b82811115610802578251825f6101000a81548173ffffffffffffffffffffffffffffffffffffffff021916908373ffffffffffffffffffffffffffffffffffffffff160217905550916020019190600101906107ab565b5b5090506108109190610814565b5090565b5b8082111561082b575f815f905550600101610815565b5090565b5f5ffd5b5f73ffffffffffffffffffffffffffffffffffffffff82169050919050565b5f61085c82610833565b9050919050565b61086c81610852565b8114610876575f5ffd5b50565b5f8135905061088781610863565b92915050565b5f602082840312156108a2576108a161082f565b5b5f6108af84828501610879565b91505092915050565b5f819050919050565b6108ca816108b8565b82525050565b5f6020820190506108e35f8301846108c1565b92915050565b6108f281610852565b82525050565b5f60208201905061090b5f8301846108e9565b92915050565b5f819050919050565b5f61093461092f61092a84610833565b610911565b610833565b9050919050565b5f6109458261091a565b9050919050565b5f6109568261093b565b9050919050565b6109668161094c565b82525050565b5f60208201905061097f5f83018461095d565b92915050565b61098e816108b8565b8114610998575f5ffd5b50565b5f813590506109a981610985565b92915050565b5f602082840312156109c4576109c361082f565b5b5f6109d18482850161099b565b91505092915050565b7f4e487b71000000000000000000000000000000000000000000000000000000005f52601160045260245ffd5b5f610a11826108b8565b9150610a1c836108b8565b9250828201905080821115610a3457610a336109da565b5b92915050565b5f81519050610a4881610985565b92915050565b5f60208284031215610a6357610a6261082f565b5b5f610a7084828501610a3a565b91505092915050565b7f4e487b71000000000000000000000000000000000000000000000000000000005f52603260045260245ffd5b7f4e487b71000000000000000000000000000000000000000000000000000000005f52604160045260245ffd5b5f81905092915050565b50565b5f610aeb5f83610ad3565b9150610af682610add565b5f82019050919050565b5f610b0a82610ae0565b9150819050919050565b5f610b1e826108b8565b9150610b29836108b8565b9250828202610b37816108b8565b91508282048414831517610b4e57610b4d6109da565b5b5092915050565b7f4e487b71000000000000000000000000000000000000000000000000000000005f52601260045260245ffd5b5f610b8c826108b8565b9150610b97836108b8565b925082610ba757610ba6610b55565b5b828204905092915050565b5f69ffffffffffffffffffff82169050919050565b610bd081610bb2565b8114610bda575f5ffd5b50565b5f81519050610beb81610bc7565b92915050565b5f819050919050565b610c0381610bf1565b8114610c0d575f5ffd5b50565b5f81519050610c1e81610bfa565b92915050565b5f5f5f5f5f60a08688031215610c3d57610c3c61082f565b5b5f610c4a88828901610bdd565b9550506020610c5b88828901610c10565b9450506040610c6c88828901610a3a565b9350506060610c7d88828901610a3a565b9250506080610c8e88828901610bdd565b9150509295509295909350565b5f610ca582610bf1565b9150610cb083610bf1565b9250828202610cbe81610bf1565b91507f800000000000000000000000000000000000000000000000000000000000000084145f84121615610cf557610cf46109da565b5b8282058414831517610d0a57610d096109da565b5b509291505056fea264697066735822122039da8928f1fddbe13637543a40df0f23c945bade9b45ba338ed23e8915a5d21164736f6c634300081e0033",
        "linkReferences": {}
    },
    "methodIdentifiers": {
        "fund()": "b60d4288",
        "getAddressToAmountFunded(address)": "0343fb25",
        "getFundRaised()": "e3707796",
        "getFunder(uint256)": "d7b4750c",
        "getOwner()": "893d20e8",
        "getPriceFeed()": "9e87a5cd",
        "getVersion()": "0d8e6e2c",
        "withdraw()": "3ccfd60b"
    },
    "id": 18
}